{"contracts/SocialFiTreasury.sol":{"SocialFiTreasury":{"abi":[{"inputs":[{"internalType":"address","name":"_usdtToken","type":"address"},{"internalType":"address","name":"_rewardToken","type":"address"},{"internalType":"address","name":"_admin","type":"address"},{"internalType":"address","name":"_distributor","type":"address"},{"internalType":"uint256","name":"_maxBatchSize","type":"uint256"}],"stateMutability":"nonpayable","type":"constructor"},{"inputs":[],"name":"AccessControlBadConfirmation","type":"error"},{"inputs":[{"internalType":"address","name":"account","type":"address"},{"internalType":"bytes32","name":"neededRole","type":"bytes32"}],"name":"AccessControlUnauthorizedAccount","type":"error"},{"inputs":[],"name":"ArrayLengthMismatch","type":"error"},{"inputs":[{"internalType":"uint256","name":"provided","type":"uint256"},{"internalType":"uint256","name":"max","type":"uint256"}],"name":"BatchTooLarge","type":"error"},{"inputs":[{"internalType":"string","name":"campaignId","type":"string"}],"name":"CampaignAlreadyFunded","type":"error"},{"inputs":[{"internalType":"address","name":"token","type":"address"}],"name":"CannotRecoverManagedToken","type":"error"},{"inputs":[],"name":"EmptyArray","type":"error"},{"inputs":[],"name":"EnforcedPause","type":"error"},{"inputs":[],"name":"ExpectedPause","type":"error"},{"inputs":[{"internalType":"uint256","name":"required","type":"uint256"},{"internalType":"uint256","name":"available","type":"uint256"}],"name":"InsufficientRewardBalance","type":"error"},{"inputs":[{"internalType":"uint256","name":"required","type":"uint256"},{"internalType":"uint256","name":"available","type":"uint256"}],"name":"InsufficientUsdtBalance","type":"error"},{"inputs":[],"name":"ReentrancyGuardReentrantCall","type":"error"},{"inputs":[{"internalType":"address","name":"token","type":"address"}],"name":"SafeERC20FailedOperation","type":"error"},{"inputs":[],"name":"SameTokenAddresses","type":"error"},{"inputs":[],"name":"ZeroAddress","type":"error"},{"inputs":[],"name":"ZeroAmount","type":"error"},{"anonymous":false,"inputs":[{"indexed":true,"internalType":"address","name":"merchant","type":"address"},{"indexed":false,"internalType":"uint256","name":"amount","type":"uint256"},{"indexed":false,"internalType":"string","name":"campaignId","type":"string"}],"name":"CampaignFunded","type":"event"},{"anonymous":false,"inputs":[{"indexed":false,"internalType":"uint256","name":"oldSize","type":"uint256"},{"indexed":false,"internalType":"uint256","name":"newSize","type":"uint256"}],"name":"MaxBatchSizeUpdated","type":"event"},{"anonymous":false,"inputs":[{"indexed":false,"internalType":"address","name":"account","type":"address"}],"name":"Paused","type":"event"},{"anonymous":false,"inputs":[{"indexed":true,"internalType":"address","name":"funder","type":"address"},{"indexed":false,"internalType":"uint256","name":"amount","type":"uint256"}],"name":"RewardPoolFunded","type":"event"},{"anonymous":false,"inputs":[{"indexed":false,"internalType":"uint256","name":"totalUsers","type":"uint256"},{"indexed":false,"internalType":"uint256","name":"totalAmount","type":"uint256"}],"name":"RewardsDistributed","type":"event"},{"anonymous":false,"inputs":[{"indexed":true,"internalType":"bytes32","name":"role","type":"bytes32"},{"indexed":true,"internalType":"bytes32","name":"previousAdminRole","type":"bytes32"},{"indexed":true,"internalType":"bytes32","name":"newAdminRole","type":"bytes32"}],"name":"RoleAdminChanged","type":"event"},{"anonymous":false,"inputs":[{"indexed":true,"internalType":"bytes32","name":"role","type":"bytes32"},{"indexed":true,"internalType":"address","name":"account","type":"address"},{"indexed":true,"internalType":"address","name":"sender","type":"address"}],"name":"RoleGranted","type":"event"},{"anonymous":false,"inputs":[{"indexed":true,"internalType":"bytes32","name":"role","type":"bytes32"},{"indexed":true,"internalType":"address","name":"account","type":"address"},{"indexed":true,"internalType":"address","name":"sender","type":"address"}],"name":"RoleRevoked","type":"event"},{"anonymous":false,"inputs":[{"indexed":true,"internalType":"address","name":"token","type":"address"},{"indexed":true,"internalType":"address","name":"to","type":"address"},{"indexed":false,"internalType":"uint256","name":"amount","type":"uint256"}],"name":"TokenRecovered","type":"event"},{"anonymous":false,"inputs":[{"indexed":false,"internalType":"address","name":"account","type":"address"}],"name":"Unpaused","type":"event"},{"anonymous":false,"inputs":[{"indexed":true,"internalType":"address","name":"to","type":"address"},{"indexed":false,"internalType":"uint256","name":"amount","type":"uint256"}],"name":"UsdtWithdrawn","type":"event"},{"inputs":[],"name":"DEFAULT_ADMIN_ROLE","outputs":[{"internalType":"bytes32","name":"","type":"bytes32"}],"stateMutability":"view","type":"function"},{"inputs":[],"name":"DISTRIBUTOR_ROLE","outputs":[{"internalType":"bytes32","name":"","type":"bytes32"}],"stateMutability":"view","type":"function"},{"inputs":[{"internalType":"address[]","name":"recipients","type":"address[]"},{"internalType":"uint256[]","name":"amounts","type":"uint256[]"}],"name":"batchDistributeRewards","outputs":[],"stateMutability":"nonpayable","type":"function"},{"inputs":[{"internalType":"string","name":"","type":"string"}],"name":"campaignDeposits","outputs":[{"internalType":"uint256","name":"","type":"uint256"}],"stateMutability":"view","type":"function"},{"inputs":[{"internalType":"uint256","name":"amount","type":"uint256"},{"internalType":"string","name":"campaignId","type":"string"}],"name":"depositUSDT","outputs":[],"stateMutability":"nonpayable","type":"function"},{"inputs":[{"internalType":"uint256","name":"amount","type":"uint256"}],"name":"fundRewardPool","outputs":[],"stateMutability":"nonpayable","type":"function"},{"inputs":[{"internalType":"string","name":"campaignId","type":"string"}],"name":"getCampaignDeposit","outputs":[{"internalType":"uint256","name":"","type":"uint256"}],"stateMutability":"view","type":"function"},{"inputs":[{"internalType":"bytes32","name":"role","type":"bytes32"}],"name":"getRoleAdmin","outputs":[{"internalType":"bytes32","name":"","type":"bytes32"}],"stateMutability":"view","type":"function"},{"inputs":[{"internalType":"bytes32","name":"role","type":"bytes32"},{"internalType":"address","name":"account","type":"address"}],"name":"grantRole","outputs":[],"stateMutability":"nonpayable","type":"function"},{"inputs":[{"internalType":"bytes32","name":"role","type":"bytes32"},{"internalType":"address","name":"account","type":"address"}],"name":"hasRole","outputs":[{"internalType":"bool","name":"","type":"bool"}],"stateMutability":"view","type":"function"},{"inputs":[],"name":"maxBatchSize","outputs":[{"internalType":"uint256","name":"","type":"uint256"}],"stateMutability":"view","type":"function"},{"inputs":[],"name":"pause","outputs":[],"stateMutability":"nonpayable","type":"function"},{"inputs":[],"name":"paused","outputs":[{"internalType":"bool","name":"","type":"bool"}],"stateMutability":"view","type":"function"},{"inputs":[{"internalType":"address","name":"token","type":"address"},{"internalType":"address","name":"to","type":"address"},{"internalType":"uint256","name":"amount","type":"uint256"}],"name":"recoverToken","outputs":[],"stateMutability":"nonpayable","type":"function"},{"inputs":[{"internalType":"bytes32","name":"role","type":"bytes32"},{"internalType":"address","name":"callerConfirmation","type":"address"}],"name":"renounceRole","outputs":[],"stateMutability":"nonpayable","type":"function"},{"inputs":[{"internalType":"bytes32","name":"role","type":"bytes32"},{"internalType":"address","name":"account","type":"address"}],"name":"revokeRole","outputs":[],"stateMutability":"nonpayable","type":"function"},{"inputs":[],"name":"rewardPoolBalance","outputs":[{"internalType":"uint256","name":"","type":"uint256"}],"stateMutability":"view","type":"function"},{"inputs":[],"name":"rewardToken","outputs":[{"internalType":"contract IERC20","name":"","type":"address"}],"stateMutability":"view","type":"function"},{"inputs":[{"internalType":"uint256","name":"_maxBatchSize","type":"uint256"}],"name":"setMaxBatchSize","outputs":[],"stateMutability":"nonpayable","type":"function"},{"inputs":[{"internalType":"bytes4","name":"interfaceId","type":"bytes4"}],"name":"supportsInterface","outputs":[{"internalType":"bool","name":"","type":"bool"}],"stateMutability":"view","type":"function"},{"inputs":[],"name":"totalRewardsDistributed","outputs":[{"internalType":"uint256","name":"","type":"uint256"}],"stateMutability":"view","type":"function"},{"inputs":[],"name":"totalRewardsFunded","outputs":[{"internalType":"uint256","name":"","type":"uint256"}],"stateMutability":"view","type":"function"},{"inputs":[],"name":"totalUsdtDeposited","outputs":[{"internalType":"uint256","name":"","type":"uint256"}],"stateMutability":"view","type":"function"},{"inputs":[],"name":"totalUsdtWithdrawn","outputs":[{"internalType":"uint256","name":"","type":"uint256"}],"stateMutability":"view","type":"function"},{"inputs":[],"name":"unpause","outputs":[],"stateMutability":"nonpayable","type":"function"},{"inputs":[],"name":"usdtBalance","outputs":[{"internalType":"uint256","name":"","type":"uint256"}],"stateMutability":"view","type":"function"},{"inputs":[],"name":"usdtToken","outputs":[{"internalType":"contract IERC20","name":"","type":"address"}],"stateMutability":"view","type":"function"},{"inputs":[{"internalType":"address","name":"to","type":"address"},{"internalType":"uint256","name":"amount","type":"uint256"}],"name":"withdrawUSDT","outputs":[],"stateMutability":"nonpayable","type":"function"},{"stateMutability":"payable","type":"receive"}],"evm":{"bytecode":{"linkReferences":{},"object":"60c0346200017957601f6200166f38819003918201601f191683019291906001600160401b038411838510176200017e578160a092849260409687528339810103126200017957620000518162000194565b6200005f6020830162000194565b6200006c84840162000194565b9160806200007d6060860162000194565b94015160018055916001600160a01b039182169081156200016857821691821562000168578085161562000168578516156200015757818114620001465760805260a052620000e49291620000dd9180156200013d575b600755620001a9565b5062000229565b50516113839081620002cc8239608051818181610345015281816103e70152818161047501528181610a180152610dc0015260a0518181816101bd015281816104fc0152818161064f015281816109230152610d100152f35b5060c8620000d4565b855163d12c3d3d60e01b8152600490fd5b855163d92e233d60e01b8152600490fd5b865163d92e233d60e01b8152600490fd5b600080fd5b634e487b7160e01b600052604160045260246000fd5b51906001600160a01b03821682036200017957565b6001600160a01b031660008181527fad3228b676f7d3cd4284a5443f17f1962b36e491b30a40b2405849e597ba5fb5602052604081205490919060ff166200022557818052816020526040822081835260205260408220600160ff1982541617905533916000805160206200164f8339815191528180a4600190565b5090565b6001600160a01b031660008181527f37775adb12013835ce20d78b1c52193dd1da3dc792bc1ec9a2d7427221516c8a60205260408120549091907ffbd454f36a7e1a388bd6fc3ab10d434aa4578f811acbbcf33afb1c697486313c9060ff16620002c657808352826020526040832082845260205260408320600160ff198254161790556000805160206200164f833981519152339380a4600190565b50509056fe60806040908082526004908136101561006c575b50361561001f57600080fd5b6020608492519162461bcd60e51b8352820152602260248201527f536f6369616c466954726561737572793a20455448206e6f7420616363657074604482015261195960f21b6064820152fd5b600090813560e01c90816301ffc9a714610f11575080630d9dd33d14610ebe5780631481794e14610d735780631d583e0d14610cd35780631ff6ed6014610cb4578063248a9ca314610c895780632913daa014610c6a5780632b26a6bf14610bfd5780632f2ff15d14610bd457806336568abe14610b8e5780633e8d1c5e14610ac45780633f4ba83a14610a59578063482edb07146109ea578063591c6f25146109cb5780635c975abb146109a75780637a5c08ae146108f55780638456cb591461089a57806391d148541461085357806394ad7e371461058a5780639d9bca361461056b578063a217fddf14610550578063a7229fd914610416578063a98ad46c146103d2578063c92c7a8a1461028c578063d547741f1461024a578063ee1725461461022b578063f0bd87cc146101f05763f7c618c1036100135782346101ec57816003193601126101ec57517f00000000000000000000000000000000000000000000000000000000000000006001600160a01b03168152602090f35b5080fd5b5082346101ec57816003193601126101ec57602090517ffbd454f36a7e1a388bd6fc3ab10d434aa4578f811acbbcf33afb1c697486313c8152f35b5082346101ec57816003193601126101ec576020906005549051908152f35b509134610288578060031936011261028857610284913561027f600161026e610fae565b9383875286602052862001546110e0565b611270565b5080f35b8280fd5b5082346101ec57806003193601126101ec57823560243567ffffffffffffffff81116103ce576102bf9036908601610f65565b9190946102ca611106565b6102d261117b565b81156103c05782156103b25783518387823760208185810160088152030190205461038a5750610380839495827f1d1acb8e92165771ea5038d4e72cb5f51c66a1f5b924ad8959a18396045c25af95518583823760208187810160088152030190205582600354016003556103698330337f0000000000000000000000000000000000000000000000000000000000000000611199565b855193849384528660208501523396840191611067565b0390a26001805580f35b8351630a19492960e31b8152602091810191909152806103ae602482018589611067565b0390fd5b835163521299a960e01b8152fd5b8351631f2a200560e01b8152fd5b8380fd5b5082346101ec57816003193601126101ec57517f00000000000000000000000000000000000000000000000000000000000000006001600160a01b03168152602090f35b5091903461028857606036600319011261028857610432610f98565b9161043b610fae565b9060443591610448611088565b610450611106565b6001600160a01b039485169384156105425785821695861561053357841561052457807f00000000000000000000000000000000000000000000000000000000000000001686149081156104f8575b506104e15750916020916104d5827f879f92dded0f26b83c3e00b12e0395dc72cfc3077343d1854ed6988edd1f90969587611129565b51908152a36001805580f35b825163372f24f360e11b8152908101859052602490fd5b90507f00000000000000000000000000000000000000000000000000000000000000001685143861049f565b508251631f2a200560e01b8152fd5b50825163d92e233d60e01b8152fd5b825163d92e233d60e01b8152fd5b5082346101ec57816003193601126101ec5751908152602090f35b5091903461028857826003193601126102885760209250549051908152f35b5082346101ec57806003193601126101ec5767ffffffffffffffff9280358481116103ce576105bc9036908301610ffc565b9190602495863590811161084f576105d79036908401610ffc565b91907ffbd454f36a7e1a388bd6fc3ab10d434aa4578f811acbbcf33afb1c697486313c92838852602093888552878920338a52855260ff888a205416156108325750610621611106565b61062961117b565b851561082257808603610812576007548087116107f757508794885b87811061077b57507f00000000000000000000000000000000000000000000000000000000000000009980868c8b51938480926370a0823160e01b8252308883015260018060a01b03165afa918215610771578b9261073e575b5087821061072357505050875b8681106106f157887f29e98ba00d07f171959c4ddcd2f3020debc7c52cf537a034d7e664340d098c6c8989898981600554016005558351928352820152a16001805580f35b8061071d61070a6107056001948b8961102d565b611053565b61071583868861102d565b35908d611129565b016106ac565b89516365ac9d4360e01b815292830188905282015260449150fd5b9091508681813d831161076a575b6107568183610fc4565b810103126107665751908c61069f565b8a80fd5b503d61074c565b8a513d8d823e3d90fd5b956001600160a01b03610792610705898b8961102d565b16156107e8576107a387848661102d565b35156107d9576107b487848661102d565b3581018091116107c75795600101610645565b634e487b7160e01b8a52601182528a8afd5b508751631f2a200560e01b8152fd5b50875163d92e233d60e01b8152fd5b856044918b898b519363bb1cb70b60e01b8552840152820152fd5b865163512509d360e11b81528590fd5b865163521299a960e01b81528590fd5b875163e2517d3f60e01b81523381880152808b0191909152604490fd5b8580fd5b509190346102885781600319360112610288578160209360ff92610875610fae565b903582528186528282206001600160a01b039091168252855220549151911615158152f35b5082346101ec57816003193601126101ec5760207f62e78cea01bee320cd4e420270b5ea74000d11b0c9f74754ebdbfc544b05a258916108d8611088565b6108e061117b565b600160ff19600254161760025551338152a180f35b50913461028857826003193601126102885780516370a0823160e01b815230928101929092526020826024817f00000000000000000000000000000000000000000000000000000000000000006001600160a01b03165afa91821561099d578392610965575b6020838351908152f35b9091506020813d602011610995575b8161098160209383610fc4565b81010312610288576020925051903861095b565b3d9150610974565b81513d85823e3d90fd5b5082346101ec57816003193601126101ec5760209060ff6002541690519015158152f35b5082346101ec57816003193601126101ec576020906006549051908152f35b50913461028857826003193601126102885780516370a0823160e01b815230928101929092526020826024817f00000000000000000000000000000000000000000000000000000000000000006001600160a01b03165afa91821561099d578392610965576020838351908152f35b50919034610288578260031936011261028857610a74611088565b6002549060ff821615610ab6575060ff1916600255513381527f5db9ee0a495bf2e6ff9c91a7834c1ba4fdd244a5e8aa4e537bd38aeae4b073aa90602090a180f35b8251638dfc202b60e01b8152fd5b509190346102885760209283600319360112610b8b5781359167ffffffffffffffff9081841161028857366023850112156102885783810135918211610b785750835192610b1b601f8301601f1916870185610fc4565b818452366024838301011161028857918582829593602483960183860137830101528351928183859351925b838110610b635750505081016008815203019020549051908152f35b82810182015187820152869450859101610b47565b634e487b7160e01b835260419052602482fd5b80fd5b5082346101ec57806003193601126101ec57610ba8610fae565b90336001600160a01b03831603610bc55750610284919235611270565b5163334bd91960e11b81528390fd5b5091346102885780600319360112610288576102849135610bf8600161026e610fae565b6111f2565b5091903461028857602036600319011261028857803590610c1c611088565b8115610c5c5750907f6b141d34195f1cbfa2080571bebbe19ad6d201cc0d1d53c70550795d14a4be8391600754908060075582519182526020820152a180f35b8251631f2a200560e01b8152fd5b5082346101ec57816003193601126101ec576020906007549051908152f35b5091903461028857602036600319011261028857816020936001923581528085522001549051908152f35b5082346101ec57816003193601126101ec576020906003549051908152f35b50913461028857602036600319011261028857813591610cf1611106565b610cf961117b565b8215610d6557508160065401600655610d348230337f0000000000000000000000000000000000000000000000000000000000000000611199565b519081527fd3c7d1587d8f93bae0fcfc5a820d2187e755a75ec28a06c20a9da047e1b01eb560203392a26001805580f35b9051631f2a200560e01b8152fd5b509134610288578060031936011261028857610d8d610f98565b9060243591610d9a611088565b610da2611106565b6001600160a01b03818116948515610eb05784156103c057602460207f0000000000000000000000000000000000000000000000000000000000000000938651928380926370a0823160e01b8252308783015287165afa908115610ea6578891610e70575b50858110610e53575084809360209593837fbdd3f02d2a57fb53c1156f98470b61cb60712d485c27c36a49b1263dabcde20198610e479554019055611129565b51908152a26001805580f35b845163e813d31360e01b8152918201869052602482015260449150fd5b90506020813d602011610e9e575b81610e8b60209383610fc4565b81010312610e9a575138610e07565b8780fd5b3d9150610e7e565b85513d8a823e3d90fd5b835163d92e233d60e01b8152fd5b50829034610b8b576020366003190112610b8b5782359067ffffffffffffffff8211610b8b5750610ef56020938492369101610f65565b9190828451938492833781016008815203019020549051908152f35b90508234610288576020366003190112610288573563ffffffff60e01b81168091036102885760209250637965db0b60e01b8114908115610f54575b5015158152f35b6301ffc9a760e01b14905083610f4d565b9181601f84011215610f935782359167ffffffffffffffff8311610f935760208381860195010111610f9357565b600080fd5b600435906001600160a01b0382168203610f9357565b602435906001600160a01b0382168203610f9357565b90601f8019910116810190811067ffffffffffffffff821117610fe657604052565b634e487b7160e01b600052604160045260246000fd5b9181601f84011215610f935782359167ffffffffffffffff8311610f93576020808501948460051b010111610f9357565b919081101561103d5760051b0190565b634e487b7160e01b600052603260045260246000fd5b356001600160a01b0381168103610f935790565b908060209392818452848401376000828201840152601f01601f1916010190565b3360009081527fad3228b676f7d3cd4284a5443f17f1962b36e491b30a40b2405849e597ba5fb5602052604081205460ff16156110c25750565b6044906040519063e2517d3f60e01b82523360048301526024820152fd5b80600052600060205260406000203360005260205260ff60406000205416156110c25750565b600260015414611117576002600155565b604051633ee5aeb560e01b8152600490fd5b60405163a9059cbb60e01b60208201526001600160a01b039092166024830152604480830193909352918152608081019167ffffffffffffffff831182841017610fe657611179926040526112e5565b565b60ff6002541661118757565b60405163d93c066560e01b8152600490fd5b6040516323b872dd60e01b60208201526001600160a01b03928316602482015292909116604483015260648083019390935291815260a081019181831067ffffffffffffffff841117610fe657611179926040526112e5565b9060009180835282602052604083209160018060a01b03169182845260205260ff6040842054161560001461126b57808352826020526040832082845260205260408320600160ff198254161790557f2f8788117e7eff1d82e926ec794901d17c78024a50270940304540a733656f0d339380a4600190565b505090565b9060009180835282602052604083209160018060a01b03169182845260205260ff60408420541660001461126b5780835282602052604083208284526020526040832060ff1981541690557ff6391f5c32d9c69d2a47ea670b442974b53935d1edc7fd64eb21e047a839171b339380a4600190565b906000602091828151910182855af115611341576000513d61133857506001600160a01b0381163b155b6113165750565b604051635274afe760e01b81526001600160a01b039091166004820152602490fd5b6001141561130f565b6040513d6000823e3d90fdfea2646970667358221220fb0bdd2517ae603caded226cc9b567ef4bb99a44690cf8c3f06a8c4001278f4e64736f6c634300081800332f8788117e7eff1d82e926ec794901d17c78024a50270940304540a733656f0d","opcodes":"PUSH1 0xC0 CALLVALUE PUSH3 0x179 JUMPI PUSH1 0x1F PUSH3 0x166F CODESIZE DUP2 SWAP1 SUB SWAP2 DUP3 ADD PUSH1 0x1F NOT AND DUP4 ADD SWAP3 SWAP2 SWAP1 PUSH1 0x1 PUSH1 0x1 PUSH1 0x40 SHL SUB DUP5 GT DUP4 DUP6 LT OR PUSH3 0x17E JUMPI DUP2 PUSH1 0xA0 SWAP3 DUP5 SWAP3 PUSH1 0x40 SWAP7 DUP8 MSTORE DUP4 CODECOPY DUP2 ADD SUB SLT PUSH3 0x179 JUMPI PUSH3 0x51 DUP2 PUSH3 0x194 JUMP JUMPDEST PUSH3 0x5F PUSH1 0x20 DUP4 ADD PUSH3 0x194 JUMP JUMPDEST PUSH3 0x6C DUP5 DUP5 ADD PUSH3 0x194 JUMP JUMPDEST SWAP2 PUSH1 0x80 PUSH3 0x7D PUSH1 0x60 DUP7 ADD PUSH3 0x194 JUMP JUMPDEST SWAP5 ADD MLOAD PUSH1 0x1 DUP1 SSTORE SWAP2 PUSH1 0x1 PUSH1 0x1 PUSH1 0xA0 SHL SUB SWAP2 DUP3 AND SWAP1 DUP2 ISZERO PUSH3 0x168 JUMPI DUP3 AND SWAP2 DUP3 ISZERO PUSH3 0x168 JUMPI DUP1 DUP6 AND ISZERO PUSH3 0x168 JUMPI DUP6 AND ISZERO PUSH3 0x157 JUMPI DUP2 DUP2 EQ PUSH3 0x146 JUMPI PUSH1 0x80 MSTORE PUSH1 0xA0 MSTORE PUSH3 0xE4 SWAP3 SWAP2 PUSH3 0xDD SWAP2 DUP1 ISZERO PUSH3 0x13D JUMPI JUMPDEST PUSH1 0x7 SSTORE PUSH3 0x1A9 JUMP JUMPDEST POP PUSH3 0x229 JUMP JUMPDEST POP MLOAD PUSH2 0x1383 SWAP1 DUP2 PUSH3 0x2CC DUP3 CODECOPY PUSH1 0x80 MLOAD DUP2 DUP2 DUP2 PUSH2 0x345 ADD MSTORE DUP2 DUP2 PUSH2 0x3E7 ADD MSTORE DUP2 DUP2 PUSH2 0x475 ADD MSTORE DUP2 DUP2 PUSH2 0xA18 ADD MSTORE PUSH2 0xDC0 ADD MSTORE PUSH1 0xA0 MLOAD DUP2 DUP2 DUP2 PUSH2 0x1BD ADD MSTORE DUP2 DUP2 PUSH2 0x4FC ADD MSTORE DUP2 DUP2 PUSH2 0x64F ADD MSTORE DUP2 DUP2 PUSH2 0x923 ADD MSTORE PUSH2 0xD10 ADD MSTORE RETURN JUMPDEST POP PUSH1 0xC8 PUSH3 0xD4 JUMP JUMPDEST DUP6 MLOAD PUSH4 0xD12C3D3D PUSH1 0xE0 SHL DUP2 MSTORE PUSH1 0x4 SWAP1 REVERT JUMPDEST DUP6 MLOAD PUSH4 0xD92E233D PUSH1 0xE0 SHL DUP2 MSTORE PUSH1 0x4 SWAP1 REVERT JUMPDEST DUP7 MLOAD PUSH4 0xD92E233D PUSH1 0xE0 SHL DUP2 MSTORE PUSH1 0x4 SWAP1 REVERT JUMPDEST PUSH1 0x0 DUP1 REVERT JUMPDEST PUSH4 0x4E487B71 PUSH1 0xE0 SHL PUSH1 0x0 MSTORE PUSH1 0x41 PUSH1 0x4 MSTORE PUSH1 0x24 PUSH1 0x0 REVERT JUMPDEST MLOAD SWAP1 PUSH1 0x1 PUSH1 0x1 PUSH1 0xA0 SHL SUB DUP3 AND DUP3 SUB PUSH3 0x179 JUMPI JUMP JUMPDEST PUSH1 0x1 PUSH1 0x1 PUSH1 0xA0 SHL SUB AND PUSH1 0x0 DUP2 DUP2 MSTORE PUSH32 0xAD3228B676F7D3CD4284A5443F17F1962B36E491B30A40B2405849E597BA5FB5 PUSH1 0x20 MSTORE PUSH1 0x40 DUP2 KECCAK256 SLOAD SWAP1 SWAP2 SWAP1 PUSH1 0xFF AND PUSH3 0x225 JUMPI DUP2 DUP1 MSTORE DUP2 PUSH1 0x20 MSTORE PUSH1 0x40 DUP3 KECCAK256 DUP2 DUP4 MSTORE PUSH1 0x20 MSTORE PUSH1 0x40 DUP3 KECCAK256 PUSH1 0x1 PUSH1 0xFF NOT DUP3 SLOAD AND OR SWAP1 SSTORE CALLER SWAP2 PUSH1 0x0 DUP1 MLOAD PUSH1 0x20 PUSH3 0x164F DUP4 CODECOPY DUP2 MLOAD SWAP2 MSTORE DUP2 DUP1 LOG4 PUSH1 0x1 SWAP1 JUMP JUMPDEST POP SWAP1 JUMP JUMPDEST PUSH1 0x1 PUSH1 0x1 PUSH1 0xA0 SHL SUB AND PUSH1 0x0 DUP2 DUP2 MSTORE PUSH32 0x37775ADB12013835CE20D78B1C52193DD1DA3DC792BC1EC9A2D7427221516C8A PUSH1 0x20 MSTORE PUSH1 0x40 DUP2 KECCAK256 SLOAD SWAP1 SWAP2 SWAP1 PUSH32 0xFBD454F36A7E1A388BD6FC3AB10D434AA4578F811ACBBCF33AFB1C697486313C SWAP1 PUSH1 0xFF AND PUSH3 0x2C6 JUMPI DUP1 DUP4 MSTORE DUP3 PUSH1 0x20 MSTORE PUSH1 0x40 DUP4 KECCAK256 DUP3 DUP5 MSTORE PUSH1 0x20 MSTORE PUSH1 0x40 DUP4 KECCAK256 PUSH1 0x1 PUSH1 0xFF NOT DUP3 SLOAD AND OR SWAP1 SSTORE PUSH1 0x0 DUP1 MLOAD PUSH1 0x20 PUSH3 0x164F DUP4 CODECOPY DUP2 MLOAD SWAP2 MSTORE CALLER SWAP4 DUP1 LOG4 PUSH1 0x1 SWAP1 JUMP JUMPDEST POP POP SWAP1 JUMP INVALID PUSH1 0x80 PUSH1 0x40 SWAP1 DUP1 DUP3 MSTORE PUSH1 0x4 SWAP1 DUP2 CALLDATASIZE LT ISZERO PUSH2 0x6C JUMPI JUMPDEST POP CALLDATASIZE ISZERO PUSH2 0x1F JUMPI PUSH1 0x0 DUP1 REVERT JUMPDEST PUSH1 0x20 PUSH1 0x84 SWAP3 MLOAD SWAP2 PUSH3 0x461BCD PUSH1 0xE5 SHL DUP4 MSTORE DUP3 ADD MSTORE PUSH1 0x22 PUSH1 0x24 DUP3 ADD MSTORE PUSH32 0x536F6369616C466954726561737572793A20455448206E6F7420616363657074 PUSH1 0x44 DUP3 ADD MSTORE PUSH2 0x1959 PUSH1 0xF2 SHL PUSH1 0x64 DUP3 ADD MSTORE REVERT JUMPDEST PUSH1 0x0 SWAP1 DUP2 CALLDATALOAD PUSH1 0xE0 SHR SWAP1 DUP2 PUSH4 0x1FFC9A7 EQ PUSH2 0xF11 JUMPI POP DUP1 PUSH4 0xD9DD33D EQ PUSH2 0xEBE JUMPI DUP1 PUSH4 0x1481794E EQ PUSH2 0xD73 JUMPI DUP1 PUSH4 0x1D583E0D EQ PUSH2 0xCD3 JUMPI DUP1 PUSH4 0x1FF6ED60 EQ PUSH2 0xCB4 JUMPI DUP1 PUSH4 0x248A9CA3 EQ PUSH2 0xC89 JUMPI DUP1 PUSH4 0x2913DAA0 EQ PUSH2 0xC6A JUMPI DUP1 PUSH4 0x2B26A6BF EQ PUSH2 0xBFD JUMPI DUP1 PUSH4 0x2F2FF15D EQ PUSH2 0xBD4 JUMPI DUP1 PUSH4 0x36568ABE EQ PUSH2 0xB8E JUMPI DUP1 PUSH4 0x3E8D1C5E EQ PUSH2 0xAC4 JUMPI DUP1 PUSH4 0x3F4BA83A EQ PUSH2 0xA59 JUMPI DUP1 PUSH4 0x482EDB07 EQ PUSH2 0x9EA JUMPI DUP1 PUSH4 0x591C6F25 EQ PUSH2 0x9CB JUMPI DUP1 PUSH4 0x5C975ABB EQ PUSH2 0x9A7 JUMPI DUP1 PUSH4 0x7A5C08AE EQ PUSH2 0x8F5 JUMPI DUP1 PUSH4 0x8456CB59 EQ PUSH2 0x89A JUMPI DUP1 PUSH4 0x91D14854 EQ PUSH2 0x853 JUMPI DUP1 PUSH4 0x94AD7E37 EQ PUSH2 0x58A JUMPI DUP1 PUSH4 0x9D9BCA36 EQ PUSH2 0x56B JUMPI DUP1 PUSH4 0xA217FDDF EQ PUSH2 0x550 JUMPI DUP1 PUSH4 0xA7229FD9 EQ PUSH2 0x416 JUMPI DUP1 PUSH4 0xA98AD46C EQ PUSH2 0x3D2 JUMPI DUP1 PUSH4 0xC92C7A8A EQ PUSH2 0x28C JUMPI DUP1 PUSH4 0xD547741F EQ PUSH2 0x24A JUMPI DUP1 PUSH4 0xEE172546 EQ PUSH2 0x22B JUMPI DUP1 PUSH4 0xF0BD87CC EQ PUSH2 0x1F0 JUMPI PUSH4 0xF7C618C1 SUB PUSH2 0x13 JUMPI DUP3 CALLVALUE PUSH2 0x1EC JUMPI DUP2 PUSH1 0x3 NOT CALLDATASIZE ADD SLT PUSH2 0x1EC JUMPI MLOAD PUSH32 0x0 PUSH1 0x1 PUSH1 0x1 PUSH1 0xA0 SHL SUB AND DUP2 MSTORE PUSH1 0x20 SWAP1 RETURN JUMPDEST POP DUP1 REVERT JUMPDEST POP DUP3 CALLVALUE PUSH2 0x1EC JUMPI DUP2 PUSH1 0x3 NOT CALLDATASIZE ADD SLT PUSH2 0x1EC JUMPI PUSH1 0x20 SWAP1 MLOAD PUSH32 0xFBD454F36A7E1A388BD6FC3AB10D434AA4578F811ACBBCF33AFB1C697486313C DUP2 MSTORE RETURN JUMPDEST POP DUP3 CALLVALUE PUSH2 0x1EC JUMPI DUP2 PUSH1 0x3 NOT CALLDATASIZE ADD SLT PUSH2 0x1EC JUMPI PUSH1 0x20 SWAP1 PUSH1 0x5 SLOAD SWAP1 MLOAD SWAP1 DUP2 MSTORE RETURN JUMPDEST POP SWAP2 CALLVALUE PUSH2 0x288 JUMPI DUP1 PUSH1 0x3 NOT CALLDATASIZE ADD SLT PUSH2 0x288 JUMPI PUSH2 0x284 SWAP2 CALLDATALOAD PUSH2 0x27F PUSH1 0x1 PUSH2 0x26E PUSH2 0xFAE JUMP JUMPDEST SWAP4 DUP4 DUP8 MSTORE DUP7 PUSH1 0x20 MSTORE DUP7 KECCAK256 ADD SLOAD PUSH2 0x10E0 JUMP JUMPDEST PUSH2 0x1270 JUMP JUMPDEST POP DUP1 RETURN JUMPDEST DUP3 DUP1 REVERT JUMPDEST POP DUP3 CALLVALUE PUSH2 0x1EC JUMPI DUP1 PUSH1 0x3 NOT CALLDATASIZE ADD SLT PUSH2 0x1EC JUMPI DUP3 CALLDATALOAD PUSH1 0x24 CALLDATALOAD PUSH8 0xFFFFFFFFFFFFFFFF DUP2 GT PUSH2 0x3CE JUMPI PUSH2 0x2BF SWAP1 CALLDATASIZE SWAP1 DUP7 ADD PUSH2 0xF65 JUMP JUMPDEST SWAP2 SWAP1 SWAP5 PUSH2 0x2CA PUSH2 0x1106 JUMP JUMPDEST PUSH2 0x2D2 PUSH2 0x117B JUMP JUMPDEST DUP2 ISZERO PUSH2 0x3C0 JUMPI DUP3 ISZERO PUSH2 0x3B2 JUMPI DUP4 MLOAD DUP4 DUP8 DUP3 CALLDATACOPY PUSH1 0x20 DUP2 DUP6 DUP2 ADD PUSH1 0x8 DUP2 MSTORE SUB ADD SWAP1 KECCAK256 SLOAD PUSH2 0x38A JUMPI POP PUSH2 0x380 DUP4 SWAP5 SWAP6 DUP3 PUSH32 0x1D1ACB8E92165771EA5038D4E72CB5F51C66A1F5B924AD8959A18396045C25AF SWAP6 MLOAD DUP6 DUP4 DUP3 CALLDATACOPY PUSH1 0x20 DUP2 DUP8 DUP2 ADD PUSH1 0x8 DUP2 MSTORE SUB ADD SWAP1 KECCAK256 SSTORE DUP3 PUSH1 0x3 SLOAD ADD PUSH1 0x3 SSTORE PUSH2 0x369 DUP4 ADDRESS CALLER PUSH32 0x0 PUSH2 0x1199 JUMP JUMPDEST DUP6 MLOAD SWAP4 DUP5 SWAP4 DUP5 MSTORE DUP7 PUSH1 0x20 DUP6 ADD MSTORE CALLER SWAP7 DUP5 ADD SWAP2 PUSH2 0x1067 JUMP JUMPDEST SUB SWAP1 LOG2 PUSH1 0x1 DUP1 SSTORE DUP1 RETURN JUMPDEST DUP4 MLOAD PUSH4 0xA194929 PUSH1 0xE3 SHL DUP2 MSTORE PUSH1 0x20 SWAP2 DUP2 ADD SWAP2 SWAP1 SWAP2 MSTORE DUP1 PUSH2 0x3AE PUSH1 0x24 DUP3 ADD DUP6 DUP10 PUSH2 0x1067 JUMP JUMPDEST SUB SWAP1 REVERT JUMPDEST DUP4 MLOAD PUSH4 0x521299A9 PUSH1 0xE0 SHL DUP2 MSTORE REVERT JUMPDEST DUP4 MLOAD PUSH4 0x1F2A2005 PUSH1 0xE0 SHL DUP2 MSTORE REVERT JUMPDEST DUP4 DUP1 REVERT JUMPDEST POP DUP3 CALLVALUE PUSH2 0x1EC JUMPI DUP2 PUSH1 0x3 NOT CALLDATASIZE ADD SLT PUSH2 0x1EC JUMPI MLOAD PUSH32 0x0 PUSH1 0x1 PUSH1 0x1 PUSH1 0xA0 SHL SUB AND DUP2 MSTORE PUSH1 0x20 SWAP1 RETURN JUMPDEST POP SWAP2 SWAP1 CALLVALUE PUSH2 0x288 JUMPI PUSH1 0x60 CALLDATASIZE PUSH1 0x3 NOT ADD SLT PUSH2 0x288 JUMPI PUSH2 0x432 PUSH2 0xF98 JUMP JUMPDEST SWAP2 PUSH2 0x43B PUSH2 0xFAE JUMP JUMPDEST SWAP1 PUSH1 0x44 CALLDATALOAD SWAP2 PUSH2 0x448 PUSH2 0x1088 JUMP JUMPDEST PUSH2 0x450 PUSH2 0x1106 JUMP JUMPDEST PUSH1 0x1 PUSH1 0x1 PUSH1 0xA0 SHL SUB SWAP5 DUP6 AND SWAP4 DUP5 ISZERO PUSH2 0x542 JUMPI DUP6 DUP3 AND SWAP6 DUP7 ISZERO PUSH2 0x533 JUMPI DUP5 ISZERO PUSH2 0x524 JUMPI DUP1 PUSH32 0x0 AND DUP7 EQ SWAP1 DUP2 ISZERO PUSH2 0x4F8 JUMPI JUMPDEST POP PUSH2 0x4E1 JUMPI POP SWAP2 PUSH1 0x20 SWAP2 PUSH2 0x4D5 DUP3 PUSH32 0x879F92DDED0F26B83C3E00B12E0395DC72CFC3077343D1854ED6988EDD1F9096 SWAP6 DUP8 PUSH2 0x1129 JUMP JUMPDEST MLOAD SWAP1 DUP2 MSTORE LOG3 PUSH1 0x1 DUP1 SSTORE DUP1 RETURN JUMPDEST DUP3 MLOAD PUSH4 0x372F24F3 PUSH1 0xE1 SHL DUP2 MSTORE SWAP1 DUP2 ADD DUP6 SWAP1 MSTORE PUSH1 0x24 SWAP1 REVERT JUMPDEST SWAP1 POP PUSH32 0x0 AND DUP6 EQ CODESIZE PUSH2 0x49F JUMP JUMPDEST POP DUP3 MLOAD PUSH4 0x1F2A2005 PUSH1 0xE0 SHL DUP2 MSTORE REVERT JUMPDEST POP DUP3 MLOAD PUSH4 0xD92E233D PUSH1 0xE0 SHL DUP2 MSTORE REVERT JUMPDEST DUP3 MLOAD PUSH4 0xD92E233D PUSH1 0xE0 SHL DUP2 MSTORE REVERT JUMPDEST POP DUP3 CALLVALUE PUSH2 0x1EC JUMPI DUP2 PUSH1 0x3 NOT CALLDATASIZE ADD SLT PUSH2 0x1EC JUMPI MLOAD SWAP1 DUP2 MSTORE PUSH1 0x20 SWAP1 RETURN JUMPDEST POP SWAP2 SWAP1 CALLVALUE PUSH2 0x288 JUMPI DUP3 PUSH1 0x3 NOT CALLDATASIZE ADD SLT PUSH2 0x288 JUMPI PUSH1 0x20 SWAP3 POP SLOAD SWAP1 MLOAD SWAP1 DUP2 MSTORE RETURN JUMPDEST POP DUP3 CALLVALUE PUSH2 0x1EC JUMPI DUP1 PUSH1 0x3 NOT CALLDATASIZE ADD SLT PUSH2 0x1EC JUMPI PUSH8 0xFFFFFFFFFFFFFFFF SWAP3 DUP1 CALLDATALOAD DUP5 DUP2 GT PUSH2 0x3CE JUMPI PUSH2 0x5BC SWAP1 CALLDATASIZE SWAP1 DUP4 ADD PUSH2 0xFFC JUMP JUMPDEST SWAP2 SWAP1 PUSH1 0x24 SWAP6 DUP7 CALLDATALOAD SWAP1 DUP2 GT PUSH2 0x84F JUMPI PUSH2 0x5D7 SWAP1 CALLDATASIZE SWAP1 DUP5 ADD PUSH2 0xFFC JUMP JUMPDEST SWAP2 SWAP1 PUSH32 0xFBD454F36A7E1A388BD6FC3AB10D434AA4578F811ACBBCF33AFB1C697486313C SWAP3 DUP4 DUP9 MSTORE PUSH1 0x20 SWAP4 DUP9 DUP6 MSTORE DUP8 DUP10 KECCAK256 CALLER DUP11 MSTORE DUP6 MSTORE PUSH1 0xFF DUP9 DUP11 KECCAK256 SLOAD AND ISZERO PUSH2 0x832 JUMPI POP PUSH2 0x621 PUSH2 0x1106 JUMP JUMPDEST PUSH2 0x629 PUSH2 0x117B JUMP JUMPDEST DUP6 ISZERO PUSH2 0x822 JUMPI DUP1 DUP7 SUB PUSH2 0x812 JUMPI PUSH1 0x7 SLOAD DUP1 DUP8 GT PUSH2 0x7F7 JUMPI POP DUP8 SWAP5 DUP9 JUMPDEST DUP8 DUP2 LT PUSH2 0x77B JUMPI POP PUSH32 0x0 SWAP10 DUP1 DUP7 DUP13 DUP12 MLOAD SWAP4 DUP5 DUP1 SWAP3 PUSH4 0x70A08231 PUSH1 0xE0 SHL DUP3 MSTORE ADDRESS DUP9 DUP4 ADD MSTORE PUSH1 0x1 DUP1 PUSH1 0xA0 SHL SUB AND GAS STATICCALL SWAP2 DUP3 ISZERO PUSH2 0x771 JUMPI DUP12 SWAP3 PUSH2 0x73E JUMPI JUMPDEST POP DUP8 DUP3 LT PUSH2 0x723 JUMPI POP POP POP DUP8 JUMPDEST DUP7 DUP2 LT PUSH2 0x6F1 JUMPI DUP9 PUSH32 0x29E98BA00D07F171959C4DDCD2F3020DEBC7C52CF537A034D7E664340D098C6C DUP10 DUP10 DUP10 DUP10 DUP2 PUSH1 0x5 SLOAD ADD PUSH1 0x5 SSTORE DUP4 MLOAD SWAP3 DUP4 MSTORE DUP3 ADD MSTORE LOG1 PUSH1 0x1 DUP1 SSTORE DUP1 RETURN JUMPDEST DUP1 PUSH2 0x71D PUSH2 0x70A PUSH2 0x705 PUSH1 0x1 SWAP5 DUP12 DUP10 PUSH2 0x102D JUMP JUMPDEST PUSH2 0x1053 JUMP JUMPDEST PUSH2 0x715 DUP4 DUP7 DUP9 PUSH2 0x102D JUMP JUMPDEST CALLDATALOAD SWAP1 DUP14 PUSH2 0x1129 JUMP JUMPDEST ADD PUSH2 0x6AC JUMP JUMPDEST DUP10 MLOAD PUSH4 0x65AC9D43 PUSH1 0xE0 SHL DUP2 MSTORE SWAP3 DUP4 ADD DUP9 SWAP1 MSTORE DUP3 ADD MSTORE PUSH1 0x44 SWAP2 POP REVERT JUMPDEST SWAP1 SWAP2 POP DUP7 DUP2 DUP2 RETURNDATASIZE DUP4 GT PUSH2 0x76A JUMPI JUMPDEST PUSH2 0x756 DUP2 DUP4 PUSH2 0xFC4 JUMP JUMPDEST DUP2 ADD SUB SLT PUSH2 0x766 JUMPI MLOAD SWAP1 DUP13 PUSH2 0x69F JUMP JUMPDEST DUP11 DUP1 REVERT JUMPDEST POP RETURNDATASIZE PUSH2 0x74C JUMP JUMPDEST DUP11 MLOAD RETURNDATASIZE DUP14 DUP3 RETURNDATACOPY RETURNDATASIZE SWAP1 REVERT JUMPDEST SWAP6 PUSH1 0x1 PUSH1 0x1 PUSH1 0xA0 SHL SUB PUSH2 0x792 PUSH2 0x705 DUP10 DUP12 DUP10 PUSH2 0x102D JUMP JUMPDEST AND ISZERO PUSH2 0x7E8 JUMPI PUSH2 0x7A3 DUP8 DUP5 DUP7 PUSH2 0x102D JUMP JUMPDEST CALLDATALOAD ISZERO PUSH2 0x7D9 JUMPI PUSH2 0x7B4 DUP8 DUP5 DUP7 PUSH2 0x102D JUMP JUMPDEST CALLDATALOAD DUP2 ADD DUP1 SWAP2 GT PUSH2 0x7C7 JUMPI SWAP6 PUSH1 0x1 ADD PUSH2 0x645 JUMP JUMPDEST PUSH4 0x4E487B71 PUSH1 0xE0 SHL DUP11 MSTORE PUSH1 0x11 DUP3 MSTORE DUP11 DUP11 REVERT JUMPDEST POP DUP8 MLOAD PUSH4 0x1F2A2005 PUSH1 0xE0 SHL DUP2 MSTORE REVERT JUMPDEST POP DUP8 MLOAD PUSH4 0xD92E233D PUSH1 0xE0 SHL DUP2 MSTORE REVERT JUMPDEST DUP6 PUSH1 0x44 SWAP2 DUP12 DUP10 DUP12 MLOAD SWAP4 PUSH4 0xBB1CB70B PUSH1 0xE0 SHL DUP6 MSTORE DUP5 ADD MSTORE DUP3 ADD MSTORE REVERT JUMPDEST DUP7 MLOAD PUSH4 0x512509D3 PUSH1 0xE1 SHL DUP2 MSTORE DUP6 SWAP1 REVERT JUMPDEST DUP7 MLOAD PUSH4 0x521299A9 PUSH1 0xE0 SHL DUP2 MSTORE DUP6 SWAP1 REVERT JUMPDEST DUP8 MLOAD PUSH4 0xE2517D3F PUSH1 0xE0 SHL DUP2 MSTORE CALLER DUP2 DUP9 ADD MSTORE DUP1 DUP12 ADD SWAP2 SWAP1 SWAP2 MSTORE PUSH1 0x44 SWAP1 REVERT JUMPDEST DUP6 DUP1 REVERT JUMPDEST POP SWAP2 SWAP1 CALLVALUE PUSH2 0x288 JUMPI DUP2 PUSH1 0x3 NOT CALLDATASIZE ADD SLT PUSH2 0x288 JUMPI DUP2 PUSH1 0x20 SWAP4 PUSH1 0xFF SWAP3 PUSH2 0x875 PUSH2 0xFAE JUMP JUMPDEST SWAP1 CALLDATALOAD DUP3 MSTORE DUP2 DUP7 MSTORE DUP3 DUP3 KECCAK256 PUSH1 0x1 PUSH1 0x1 PUSH1 0xA0 SHL SUB SWAP1 SWAP2 AND DUP3 MSTORE DUP6 MSTORE KECCAK256 SLOAD SWAP2 MLOAD SWAP2 AND ISZERO ISZERO DUP2 MSTORE RETURN JUMPDEST POP DUP3 CALLVALUE PUSH2 0x1EC JUMPI DUP2 PUSH1 0x3 NOT CALLDATASIZE ADD SLT PUSH2 0x1EC JUMPI PUSH1 0x20 PUSH32 0x62E78CEA01BEE320CD4E420270B5EA74000D11B0C9F74754EBDBFC544B05A258 SWAP2 PUSH2 0x8D8 PUSH2 0x1088 JUMP JUMPDEST PUSH2 0x8E0 PUSH2 0x117B JUMP JUMPDEST PUSH1 0x1 PUSH1 0xFF NOT PUSH1 0x2 SLOAD AND OR PUSH1 0x2 SSTORE MLOAD CALLER DUP2 MSTORE LOG1 DUP1 RETURN JUMPDEST POP SWAP2 CALLVALUE PUSH2 0x288 JUMPI DUP3 PUSH1 0x3 NOT CALLDATASIZE ADD SLT PUSH2 0x288 JUMPI DUP1 MLOAD PUSH4 0x70A08231 PUSH1 0xE0 SHL DUP2 MSTORE ADDRESS SWAP3 DUP2 ADD SWAP3 SWAP1 SWAP3 MSTORE PUSH1 0x20 DUP3 PUSH1 0x24 DUP2 PUSH32 0x0 PUSH1 0x1 PUSH1 0x1 PUSH1 0xA0 SHL SUB AND GAS STATICCALL SWAP2 DUP3 ISZERO PUSH2 0x99D JUMPI DUP4 SWAP3 PUSH2 0x965 JUMPI JUMPDEST PUSH1 0x20 DUP4 DUP4 MLOAD SWAP1 DUP2 MSTORE RETURN JUMPDEST SWAP1 SWAP2 POP PUSH1 0x20 DUP2 RETURNDATASIZE PUSH1 0x20 GT PUSH2 0x995 JUMPI JUMPDEST DUP2 PUSH2 0x981 PUSH1 0x20 SWAP4 DUP4 PUSH2 0xFC4 JUMP JUMPDEST DUP2 ADD SUB SLT PUSH2 0x288 JUMPI PUSH1 0x20 SWAP3 POP MLOAD SWAP1 CODESIZE PUSH2 0x95B JUMP JUMPDEST RETURNDATASIZE SWAP2 POP PUSH2 0x974 JUMP JUMPDEST DUP2 MLOAD RETURNDATASIZE DUP6 DUP3 RETURNDATACOPY RETURNDATASIZE SWAP1 REVERT JUMPDEST POP DUP3 CALLVALUE PUSH2 0x1EC JUMPI DUP2 PUSH1 0x3 NOT CALLDATASIZE ADD SLT PUSH2 0x1EC JUMPI PUSH1 0x20 SWAP1 PUSH1 0xFF PUSH1 0x2 SLOAD AND SWAP1 MLOAD SWAP1 ISZERO ISZERO DUP2 MSTORE RETURN JUMPDEST POP DUP3 CALLVALUE PUSH2 0x1EC JUMPI DUP2 PUSH1 0x3 NOT CALLDATASIZE ADD SLT PUSH2 0x1EC JUMPI PUSH1 0x20 SWAP1 PUSH1 0x6 SLOAD SWAP1 MLOAD SWAP1 DUP2 MSTORE RETURN JUMPDEST POP SWAP2 CALLVALUE PUSH2 0x288 JUMPI DUP3 PUSH1 0x3 NOT CALLDATASIZE ADD SLT PUSH2 0x288 JUMPI DUP1 MLOAD PUSH4 0x70A08231 PUSH1 0xE0 SHL DUP2 MSTORE ADDRESS SWAP3 DUP2 ADD SWAP3 SWAP1 SWAP3 MSTORE PUSH1 0x20 DUP3 PUSH1 0x24 DUP2 PUSH32 0x0 PUSH1 0x1 PUSH1 0x1 PUSH1 0xA0 SHL SUB AND GAS STATICCALL SWAP2 DUP3 ISZERO PUSH2 0x99D JUMPI DUP4 SWAP3 PUSH2 0x965 JUMPI PUSH1 0x20 DUP4 DUP4 MLOAD SWAP1 DUP2 MSTORE RETURN JUMPDEST POP SWAP2 SWAP1 CALLVALUE PUSH2 0x288 JUMPI DUP3 PUSH1 0x3 NOT CALLDATASIZE ADD SLT PUSH2 0x288 JUMPI PUSH2 0xA74 PUSH2 0x1088 JUMP JUMPDEST PUSH1 0x2 SLOAD SWAP1 PUSH1 0xFF DUP3 AND ISZERO PUSH2 0xAB6 JUMPI POP PUSH1 0xFF NOT AND PUSH1 0x2 SSTORE MLOAD CALLER DUP2 MSTORE PUSH32 0x5DB9EE0A495BF2E6FF9C91A7834C1BA4FDD244A5E8AA4E537BD38AEAE4B073AA SWAP1 PUSH1 0x20 SWAP1 LOG1 DUP1 RETURN JUMPDEST DUP3 MLOAD PUSH4 0x8DFC202B PUSH1 0xE0 SHL DUP2 MSTORE REVERT JUMPDEST POP SWAP2 SWAP1 CALLVALUE PUSH2 0x288 JUMPI PUSH1 0x20 SWAP3 DUP4 PUSH1 0x3 NOT CALLDATASIZE ADD SLT PUSH2 0xB8B JUMPI DUP2 CALLDATALOAD SWAP2 PUSH8 0xFFFFFFFFFFFFFFFF SWAP1 DUP2 DUP5 GT PUSH2 0x288 JUMPI CALLDATASIZE PUSH1 0x23 DUP6 ADD SLT ISZERO PUSH2 0x288 JUMPI DUP4 DUP2 ADD CALLDATALOAD SWAP2 DUP3 GT PUSH2 0xB78 JUMPI POP DUP4 MLOAD SWAP3 PUSH2 0xB1B PUSH1 0x1F DUP4 ADD PUSH1 0x1F NOT AND DUP8 ADD DUP6 PUSH2 0xFC4 JUMP JUMPDEST DUP2 DUP5 MSTORE CALLDATASIZE PUSH1 0x24 DUP4 DUP4 ADD ADD GT PUSH2 0x288 JUMPI SWAP2 DUP6 DUP3 DUP3 SWAP6 SWAP4 PUSH1 0x24 DUP4 SWAP7 ADD DUP4 DUP7 ADD CALLDATACOPY DUP4 ADD ADD MSTORE DUP4 MLOAD SWAP3 DUP2 DUP4 DUP6 SWAP4 MLOAD SWAP3 JUMPDEST DUP4 DUP2 LT PUSH2 0xB63 JUMPI POP POP POP DUP2 ADD PUSH1 0x8 DUP2 MSTORE SUB ADD SWAP1 KECCAK256 SLOAD SWAP1 MLOAD SWAP1 DUP2 MSTORE RETURN JUMPDEST DUP3 DUP2 ADD DUP3 ADD MLOAD DUP8 DUP3 ADD MSTORE DUP7 SWAP5 POP DUP6 SWAP2 ADD PUSH2 0xB47 JUMP JUMPDEST PUSH4 0x4E487B71 PUSH1 0xE0 SHL DUP4 MSTORE PUSH1 0x41 SWAP1 MSTORE PUSH1 0x24 DUP3 REVERT JUMPDEST DUP1 REVERT JUMPDEST POP DUP3 CALLVALUE PUSH2 0x1EC JUMPI DUP1 PUSH1 0x3 NOT CALLDATASIZE ADD SLT PUSH2 0x1EC JUMPI PUSH2 0xBA8 PUSH2 0xFAE JUMP JUMPDEST SWAP1 CALLER PUSH1 0x1 PUSH1 0x1 PUSH1 0xA0 SHL SUB DUP4 AND SUB PUSH2 0xBC5 JUMPI POP PUSH2 0x284 SWAP2 SWAP3 CALLDATALOAD PUSH2 0x1270 JUMP JUMPDEST MLOAD PUSH4 0x334BD919 PUSH1 0xE1 SHL DUP2 MSTORE DUP4 SWAP1 REVERT JUMPDEST POP SWAP2 CALLVALUE PUSH2 0x288 JUMPI DUP1 PUSH1 0x3 NOT CALLDATASIZE ADD SLT PUSH2 0x288 JUMPI PUSH2 0x284 SWAP2 CALLDATALOAD PUSH2 0xBF8 PUSH1 0x1 PUSH2 0x26E PUSH2 0xFAE JUMP JUMPDEST PUSH2 0x11F2 JUMP JUMPDEST POP SWAP2 SWAP1 CALLVALUE PUSH2 0x288 JUMPI PUSH1 0x20 CALLDATASIZE PUSH1 0x3 NOT ADD SLT PUSH2 0x288 JUMPI DUP1 CALLDATALOAD SWAP1 PUSH2 0xC1C PUSH2 0x1088 JUMP JUMPDEST DUP2 ISZERO PUSH2 0xC5C JUMPI POP SWAP1 PUSH32 0x6B141D34195F1CBFA2080571BEBBE19AD6D201CC0D1D53C70550795D14A4BE83 SWAP2 PUSH1 0x7 SLOAD SWAP1 DUP1 PUSH1 0x7 SSTORE DUP3 MLOAD SWAP2 DUP3 MSTORE PUSH1 0x20 DUP3 ADD MSTORE LOG1 DUP1 RETURN JUMPDEST DUP3 MLOAD PUSH4 0x1F2A2005 PUSH1 0xE0 SHL DUP2 MSTORE REVERT JUMPDEST POP DUP3 CALLVALUE PUSH2 0x1EC JUMPI DUP2 PUSH1 0x3 NOT CALLDATASIZE ADD SLT PUSH2 0x1EC JUMPI PUSH1 0x20 SWAP1 PUSH1 0x7 SLOAD SWAP1 MLOAD SWAP1 DUP2 MSTORE RETURN JUMPDEST POP SWAP2 SWAP1 CALLVALUE PUSH2 0x288 JUMPI PUSH1 0x20 CALLDATASIZE PUSH1 0x3 NOT ADD SLT PUSH2 0x288 JUMPI DUP2 PUSH1 0x20 SWAP4 PUSH1 0x1 SWAP3 CALLDATALOAD DUP2 MSTORE DUP1 DUP6 MSTORE KECCAK256 ADD SLOAD SWAP1 MLOAD SWAP1 DUP2 MSTORE RETURN JUMPDEST POP DUP3 CALLVALUE PUSH2 0x1EC JUMPI DUP2 PUSH1 0x3 NOT CALLDATASIZE ADD SLT PUSH2 0x1EC JUMPI PUSH1 0x20 SWAP1 PUSH1 0x3 SLOAD SWAP1 MLOAD SWAP1 DUP2 MSTORE RETURN JUMPDEST POP SWAP2 CALLVALUE PUSH2 0x288 JUMPI PUSH1 0x20 CALLDATASIZE PUSH1 0x3 NOT ADD SLT PUSH2 0x288 JUMPI DUP2 CALLDATALOAD SWAP2 PUSH2 0xCF1 PUSH2 0x1106 JUMP JUMPDEST PUSH2 0xCF9 PUSH2 0x117B JUMP JUMPDEST DUP3 ISZERO PUSH2 0xD65 JUMPI POP DUP2 PUSH1 0x6 SLOAD ADD PUSH1 0x6 SSTORE PUSH2 0xD34 DUP3 ADDRESS CALLER PUSH32 0x0 PUSH2 0x1199 JUMP JUMPDEST MLOAD SWAP1 DUP2 MSTORE PUSH32 0xD3C7D1587D8F93BAE0FCFC5A820D2187E755A75EC28A06C20A9DA047E1B01EB5 PUSH1 0x20 CALLER SWAP3 LOG2 PUSH1 0x1 DUP1 SSTORE DUP1 RETURN JUMPDEST SWAP1 MLOAD PUSH4 0x1F2A2005 PUSH1 0xE0 SHL DUP2 MSTORE REVERT JUMPDEST POP SWAP2 CALLVALUE PUSH2 0x288 JUMPI DUP1 PUSH1 0x3 NOT CALLDATASIZE ADD SLT PUSH2 0x288 JUMPI PUSH2 0xD8D PUSH2 0xF98 JUMP JUMPDEST SWAP1 PUSH1 0x24 CALLDATALOAD SWAP2 PUSH2 0xD9A PUSH2 0x1088 JUMP JUMPDEST PUSH2 0xDA2 PUSH2 0x1106 JUMP JUMPDEST PUSH1 0x1 PUSH1 0x1 PUSH1 0xA0 SHL SUB DUP2 DUP2 AND SWAP5 DUP6 ISZERO PUSH2 0xEB0 JUMPI DUP5 ISZERO PUSH2 0x3C0 JUMPI PUSH1 0x24 PUSH1 0x20 PUSH32 0x0 SWAP4 DUP7 MLOAD SWAP3 DUP4 DUP1 SWAP3 PUSH4 0x70A08231 PUSH1 0xE0 SHL DUP3 MSTORE ADDRESS DUP8 DUP4 ADD MSTORE DUP8 AND GAS STATICCALL SWAP1 DUP2 ISZERO PUSH2 0xEA6 JUMPI DUP9 SWAP2 PUSH2 0xE70 JUMPI JUMPDEST POP DUP6 DUP2 LT PUSH2 0xE53 JUMPI POP DUP5 DUP1 SWAP4 PUSH1 0x20 SWAP6 SWAP4 DUP4 PUSH32 0xBDD3F02D2A57FB53C1156F98470B61CB60712D485C27C36A49B1263DABCDE201 SWAP9 PUSH2 0xE47 SWAP6 SLOAD ADD SWAP1 SSTORE PUSH2 0x1129 JUMP JUMPDEST MLOAD SWAP1 DUP2 MSTORE LOG2 PUSH1 0x1 DUP1 SSTORE DUP1 RETURN JUMPDEST DUP5 MLOAD PUSH4 0xE813D313 PUSH1 0xE0 SHL DUP2 MSTORE SWAP2 DUP3 ADD DUP7 SWAP1 MSTORE PUSH1 0x24 DUP3 ADD MSTORE PUSH1 0x44 SWAP2 POP REVERT JUMPDEST SWAP1 POP PUSH1 0x20 DUP2 RETURNDATASIZE PUSH1 0x20 GT PUSH2 0xE9E JUMPI JUMPDEST DUP2 PUSH2 0xE8B PUSH1 0x20 SWAP4 DUP4 PUSH2 0xFC4 JUMP JUMPDEST DUP2 ADD SUB SLT PUSH2 0xE9A JUMPI MLOAD CODESIZE PUSH2 0xE07 JUMP JUMPDEST DUP8 DUP1 REVERT JUMPDEST RETURNDATASIZE SWAP2 POP PUSH2 0xE7E JUMP JUMPDEST DUP6 MLOAD RETURNDATASIZE DUP11 DUP3 RETURNDATACOPY RETURNDATASIZE SWAP1 REVERT JUMPDEST DUP4 MLOAD PUSH4 0xD92E233D PUSH1 0xE0 SHL DUP2 MSTORE REVERT JUMPDEST POP DUP3 SWAP1 CALLVALUE PUSH2 0xB8B JUMPI PUSH1 0x20 CALLDATASIZE PUSH1 0x3 NOT ADD SLT PUSH2 0xB8B JUMPI DUP3 CALLDATALOAD SWAP1 PUSH8 0xFFFFFFFFFFFFFFFF DUP3 GT PUSH2 0xB8B JUMPI POP PUSH2 0xEF5 PUSH1 0x20 SWAP4 DUP5 SWAP3 CALLDATASIZE SWAP2 ADD PUSH2 0xF65 JUMP JUMPDEST SWAP2 SWAP1 DUP3 DUP5 MLOAD SWAP4 DUP5 SWAP3 DUP4 CALLDATACOPY DUP2 ADD PUSH1 0x8 DUP2 MSTORE SUB ADD SWAP1 KECCAK256 SLOAD SWAP1 MLOAD SWAP1 DUP2 MSTORE RETURN JUMPDEST SWAP1 POP DUP3 CALLVALUE PUSH2 0x288 JUMPI PUSH1 0x20 CALLDATASIZE PUSH1 0x3 NOT ADD SLT PUSH2 0x288 JUMPI CALLDATALOAD PUSH4 0xFFFFFFFF PUSH1 0xE0 SHL DUP2 AND DUP1 SWAP2 SUB PUSH2 0x288 JUMPI PUSH1 0x20 SWAP3 POP PUSH4 0x7965DB0B PUSH1 0xE0 SHL DUP2 EQ SWAP1 DUP2 ISZERO PUSH2 0xF54 JUMPI JUMPDEST POP ISZERO ISZERO DUP2 MSTORE RETURN JUMPDEST PUSH4 0x1FFC9A7 PUSH1 0xE0 SHL EQ SWAP1 POP DUP4 PUSH2 0xF4D JUMP JUMPDEST SWAP2 DUP2 PUSH1 0x1F DUP5 ADD SLT ISZERO PUSH2 0xF93 JUMPI DUP3 CALLDATALOAD SWAP2 PUSH8 0xFFFFFFFFFFFFFFFF DUP4 GT PUSH2 0xF93 JUMPI PUSH1 0x20 DUP4 DUP2 DUP7 ADD SWAP6 ADD ADD GT PUSH2 0xF93 JUMPI JUMP JUMPDEST PUSH1 0x0 DUP1 REVERT JUMPDEST PUSH1 0x4 CALLDATALOAD SWAP1 PUSH1 0x1 PUSH1 0x1 PUSH1 0xA0 SHL SUB DUP3 AND DUP3 SUB PUSH2 0xF93 JUMPI JUMP JUMPDEST PUSH1 0x24 CALLDATALOAD SWAP1 PUSH1 0x1 PUSH1 0x1 PUSH1 0xA0 SHL SUB DUP3 AND DUP3 SUB PUSH2 0xF93 JUMPI JUMP JUMPDEST SWAP1 PUSH1 0x1F DUP1 NOT SWAP2 ADD AND DUP2 ADD SWAP1 DUP2 LT PUSH8 0xFFFFFFFFFFFFFFFF DUP3 GT OR PUSH2 0xFE6 JUMPI PUSH1 0x40 MSTORE JUMP JUMPDEST PUSH4 0x4E487B71 PUSH1 0xE0 SHL PUSH1 0x0 MSTORE PUSH1 0x41 PUSH1 0x4 MSTORE PUSH1 0x24 PUSH1 0x0 REVERT JUMPDEST SWAP2 DUP2 PUSH1 0x1F DUP5 ADD SLT ISZERO PUSH2 0xF93 JUMPI DUP3 CALLDATALOAD SWAP2 PUSH8 0xFFFFFFFFFFFFFFFF DUP4 GT PUSH2 0xF93 JUMPI PUSH1 0x20 DUP1 DUP6 ADD SWAP5 DUP5 PUSH1 0x5 SHL ADD ADD GT PUSH2 0xF93 JUMPI JUMP JUMPDEST SWAP2 SWAP1 DUP2 LT ISZERO PUSH2 0x103D JUMPI PUSH1 0x5 SHL ADD SWAP1 JUMP JUMPDEST PUSH4 0x4E487B71 PUSH1 0xE0 SHL PUSH1 0x0 MSTORE PUSH1 0x32 PUSH1 0x4 MSTORE PUSH1 0x24 PUSH1 0x0 REVERT JUMPDEST CALLDATALOAD PUSH1 0x1 PUSH1 0x1 PUSH1 0xA0 SHL SUB DUP2 AND DUP2 SUB PUSH2 0xF93 JUMPI SWAP1 JUMP JUMPDEST SWAP1 DUP1 PUSH1 0x20 SWAP4 SWAP3 DUP2 DUP5 MSTORE DUP5 DUP5 ADD CALLDATACOPY PUSH1 0x0 DUP3 DUP3 ADD DUP5 ADD MSTORE PUSH1 0x1F ADD PUSH1 0x1F NOT AND ADD ADD SWAP1 JUMP JUMPDEST CALLER PUSH1 0x0 SWAP1 DUP2 MSTORE PUSH32 0xAD3228B676F7D3CD4284A5443F17F1962B36E491B30A40B2405849E597BA5FB5 PUSH1 0x20 MSTORE PUSH1 0x40 DUP2 KECCAK256 SLOAD PUSH1 0xFF AND ISZERO PUSH2 0x10C2 JUMPI POP JUMP JUMPDEST PUSH1 0x44 SWAP1 PUSH1 0x40 MLOAD SWAP1 PUSH4 0xE2517D3F PUSH1 0xE0 SHL DUP3 MSTORE CALLER PUSH1 0x4 DUP4 ADD MSTORE PUSH1 0x24 DUP3 ADD MSTORE REVERT JUMPDEST DUP1 PUSH1 0x0 MSTORE PUSH1 0x0 PUSH1 0x20 MSTORE PUSH1 0x40 PUSH1 0x0 KECCAK256 CALLER PUSH1 0x0 MSTORE PUSH1 0x20 MSTORE PUSH1 0xFF PUSH1 0x40 PUSH1 0x0 KECCAK256 SLOAD AND ISZERO PUSH2 0x10C2 JUMPI POP JUMP JUMPDEST PUSH1 0x2 PUSH1 0x1 SLOAD EQ PUSH2 0x1117 JUMPI PUSH1 0x2 PUSH1 0x1 SSTORE JUMP JUMPDEST PUSH1 0x40 MLOAD PUSH4 0x3EE5AEB5 PUSH1 0xE0 SHL DUP2 MSTORE PUSH1 0x4 SWAP1 REVERT JUMPDEST PUSH1 0x40 MLOAD PUSH4 0xA9059CBB PUSH1 0xE0 SHL PUSH1 0x20 DUP3 ADD MSTORE PUSH1 0x1 PUSH1 0x1 PUSH1 0xA0 SHL SUB SWAP1 SWAP3 AND PUSH1 0x24 DUP4 ADD MSTORE PUSH1 0x44 DUP1 DUP4 ADD SWAP4 SWAP1 SWAP4 MSTORE SWAP2 DUP2 MSTORE PUSH1 0x80 DUP2 ADD SWAP2 PUSH8 0xFFFFFFFFFFFFFFFF DUP4 GT DUP3 DUP5 LT OR PUSH2 0xFE6 JUMPI PUSH2 0x1179 SWAP3 PUSH1 0x40 MSTORE PUSH2 0x12E5 JUMP JUMPDEST JUMP JUMPDEST PUSH1 0xFF PUSH1 0x2 SLOAD AND PUSH2 0x1187 JUMPI JUMP JUMPDEST PUSH1 0x40 MLOAD PUSH4 0xD93C0665 PUSH1 0xE0 SHL DUP2 MSTORE PUSH1 0x4 SWAP1 REVERT JUMPDEST PUSH1 0x40 MLOAD PUSH4 0x23B872DD PUSH1 0xE0 SHL PUSH1 0x20 DUP3 ADD MSTORE PUSH1 0x1 PUSH1 0x1 PUSH1 0xA0 SHL SUB SWAP3 DUP4 AND PUSH1 0x24 DUP3 ADD MSTORE SWAP3 SWAP1 SWAP2 AND PUSH1 0x44 DUP4 ADD MSTORE PUSH1 0x64 DUP1 DUP4 ADD SWAP4 SWAP1 SWAP4 MSTORE SWAP2 DUP2 MSTORE PUSH1 0xA0 DUP2 ADD SWAP2 DUP2 DUP4 LT PUSH8 0xFFFFFFFFFFFFFFFF DUP5 GT OR PUSH2 0xFE6 JUMPI PUSH2 0x1179 SWAP3 PUSH1 0x40 MSTORE PUSH2 0x12E5 JUMP JUMPDEST SWAP1 PUSH1 0x0 SWAP2 DUP1 DUP4 MSTORE DUP3 PUSH1 0x20 MSTORE PUSH1 0x40 DUP4 KECCAK256 SWAP2 PUSH1 0x1 DUP1 PUSH1 0xA0 SHL SUB AND SWAP2 DUP3 DUP5 MSTORE PUSH1 0x20 MSTORE PUSH1 0xFF PUSH1 0x40 DUP5 KECCAK256 SLOAD AND ISZERO PUSH1 0x0 EQ PUSH2 0x126B JUMPI DUP1 DUP4 MSTORE DUP3 PUSH1 0x20 MSTORE PUSH1 0x40 DUP4 KECCAK256 DUP3 DUP5 MSTORE PUSH1 0x20 MSTORE PUSH1 0x40 DUP4 KECCAK256 PUSH1 0x1 PUSH1 0xFF NOT DUP3 SLOAD AND OR SWAP1 SSTORE PUSH32 0x2F8788117E7EFF1D82E926EC794901D17C78024A50270940304540A733656F0D CALLER SWAP4 DUP1 LOG4 PUSH1 0x1 SWAP1 JUMP JUMPDEST POP POP SWAP1 JUMP JUMPDEST SWAP1 PUSH1 0x0 SWAP2 DUP1 DUP4 MSTORE DUP3 PUSH1 0x20 MSTORE PUSH1 0x40 DUP4 KECCAK256 SWAP2 PUSH1 0x1 DUP1 PUSH1 0xA0 SHL SUB AND SWAP2 DUP3 DUP5 MSTORE PUSH1 0x20 MSTORE PUSH1 0xFF PUSH1 0x40 DUP5 KECCAK256 SLOAD AND PUSH1 0x0 EQ PUSH2 0x126B JUMPI DUP1 DUP4 MSTORE DUP3 PUSH1 0x20 MSTORE PUSH1 0x40 DUP4 KECCAK256 DUP3 DUP5 MSTORE PUSH1 0x20 MSTORE PUSH1 0x40 DUP4 KECCAK256 PUSH1 0xFF NOT DUP2 SLOAD AND SWAP1 SSTORE PUSH32 0xF6391F5C32D9C69D2A47EA670B442974B53935D1EDC7FD64EB21E047A839171B CALLER SWAP4 DUP1 LOG4 PUSH1 0x1 SWAP1 JUMP JUMPDEST SWAP1 PUSH1 0x0 PUSH1 0x20 SWAP2 DUP3 DUP2 MLOAD SWAP2 ADD DUP3 DUP6 GAS CALL ISZERO PUSH2 0x1341 JUMPI PUSH1 0x0 MLOAD RETURNDATASIZE PUSH2 0x1338 JUMPI POP PUSH1 0x1 PUSH1 0x1 PUSH1 0xA0 SHL SUB DUP2 AND EXTCODESIZE ISZERO JUMPDEST PUSH2 0x1316 JUMPI POP JUMP JUMPDEST PUSH1 0x40 MLOAD PUSH4 0x5274AFE7 PUSH1 0xE0 SHL DUP2 MSTORE PUSH1 0x1 PUSH1 0x1 PUSH1 0xA0 SHL SUB SWAP1 SWAP2 AND PUSH1 0x4 DUP3 ADD MSTORE PUSH1 0x24 SWAP1 REVERT JUMPDEST PUSH1 0x1 EQ ISZERO PUSH2 0x130F JUMP JUMPDEST PUSH1 0x40 MLOAD RETURNDATASIZE PUSH1 0x0 DUP3 RETURNDATACOPY RETURNDATASIZE SWAP1 REVERT INVALID LOG2 PUSH5 0x6970667358 0x22 SLT KECCAK256 0xFB SIGNEXTEND 0xDD 0x25 OR 0xAE PUSH1 0x3C 0xAD 0xED 0x22 PUSH13 0xC9B567EF4BB99A44690CF8C3F0 PUSH11 0x8C4001278F4E64736F6C63 NUMBER STOP ADDMOD XOR STOP CALLER 0x2F DUP8 DUP9 GT PUSH31 0x7EFF1D82E926EC794901D17C78024A50270940304540A733656F0D00000000 "},"methodIdentifiers":{"DEFAULT_ADMIN_ROLE()":"a217fddf","DISTRIBUTOR_ROLE()":"f0bd87cc","batchDistributeRewards(address[],uint256[])":"94ad7e37","campaignDeposits(string)":"3e8d1c5e","depositUSDT(uint256,string)":"c92c7a8a","fundRewardPool(uint256)":"1d583e0d","getCampaignDeposit(string)":"0d9dd33d","getRoleAdmin(bytes32)":"248a9ca3","grantRole(bytes32,address)":"2f2ff15d","hasRole(bytes32,address)":"91d14854","maxBatchSize()":"2913daa0","pause()":"8456cb59","paused()":"5c975abb","recoverToken(address,address,uint256)":"a7229fd9","renounceRole(bytes32,address)":"36568abe","revokeRole(bytes32,address)":"d547741f","rewardPoolBalance()":"7a5c08ae","rewardToken()":"f7c618c1","setMaxBatchSize(uint256)":"2b26a6bf","supportsInterface(bytes4)":"01ffc9a7","totalRewardsDistributed()":"ee172546","totalRewardsFunded()":"591c6f25","totalUsdtDeposited()":"1ff6ed60","totalUsdtWithdrawn()":"9d9bca36","unpause()":"3f4ba83a","usdtBalance()":"482edb07","usdtToken()":"a98ad46c","withdrawUSDT(address,uint256)":"1481794e"}}}}}